:020000040000FA
:04000000803114280F
:100008007E1480314E01161C0A280B2812280C1C5D
:100018000E280F28122882312E2280317E100900E6
:1000280080311628FB014001B101B201B301B401CE
:10003800B501B6017E1040018031222881313A2174
:10004800803181319D2180318B170B178131AD2192
:100058008031F90079084001A800823106228031F8
:10006800663081315B21803164304001A900003065
:10007800AA000F30AB000030AC000130AD000030FA
:10008800AE000330AF000030B000803186208031F0
:1000980040019814FE30A9000130AA000A30AB00D4
:1000A8000030AC000130AD000030AE000330AF00CE
:1000B8000030B000803186208031FE304001A90038
:1000C8000130AA000A30AB000030AC000230AD00AD
:1000D8000030AE000430AF000030B0008031862020
:1000E8008031400198102730FA000D30F900263091
:1000F800890B7C28F90B7C28FA0B7C2800323128E4
:100108008031142840012E08F3002D08F2008131B7
:100118001321803140013008F3002F08F2008131AB
:1001280013218031F501F601A92840011A15FA308A
:100138000032890B9C2840011A11FA300032890BD1
:10014800A2280130F5070030F63D7608803AF40021
:1001580040012A08803A7402031DB4282908750250
:10016800031CB728B8289928F701F801D3284001BB
:1001780099161130F4003A30890BC028F40BC028C6
:100188000032400199121130F4003A30890BCA2824
:10019800F40BCA2800320130F7070030F83D780820
:1001A800803AF40040012C08803A7402031DDE28CE
:1001B8002B087702031CE128E228BB28080040012D
:1001C800980199019A011D309200C1309300B8300E
:1001D80094007F307E01CE00FF30C300E230B800CB
:1001E800E501C4010130B900CF01BA01C501D00150
:1001F800FF30BB00FF30C600FF30D100FF30BC002D
:10020800FF30C700FF30D2000830E8007D019001C0
:100218000F307E01A60017307D01CB000800720365
:100228007304031D182919291C2940019A14392916
:10023800023072067304031D22292329262940014E
:100248009A103929033072067304031D2C292D29AD
:100258003029400119163929043072067304031D28
:100268003629372939294001191208000830420176
:100278009F0090309D0024309E0019309B009C0107
:100288000030F2000030F300823122228131003048
:10029800F2000030F30082311C2281310030F2007C
:1002A8000030F300823128228131FB010800F3007D
:1002B800730881318A21813164298131BC218131DE
:1002C80040010C1A6829692961296D298131742135
:1002D800813140018C19712972296A299810080006
:1002E8004001191299160730F2007D30890B7A29DE
:1002F800F20B7A290000400199120730F2007D3094
:10030800890B8429F20B842900000800F2006F3061
:100318007206031D902991299429400198149C295B
:1003280066307206031D99299A299C294001981064
:10033800080082310E2281318031E3208131813100
:10034800F22181318131D821813181313A218131C4
:1003580008004E018F1EB129B229AD29FB014201C7
:100368009D1CB729B829BA291D121D16190808009D
:1003780040019A101A15FA300032890BC029400141
:100388001A11FA300032890BC629080040010C18EE
:10039800CE29CF29D7293430F1007108A80074304C
:1003A8008131FC21813108004E010C100B14CA3038
:1003B800F2000130F3008231162281314E01161409
:1003C80008004001200821040319EB29EC29F12930
:1003D80021088A0020080A00813108006230510192
:1003E8008D008F0191010230930090019201080065
:1003F800F0004E010F1E012A022AFD297008420151
:100408009A000800400118131A1098131911991529
:10041800991008004F0196019701980199019A01D6
:100428009B01080073084001A1007208A0000800A1
:1004380073084001A5007208A40008007308400171
:10044800A7007208A600080073084001A3007208FC
:10045800A20008004E010C108131E521823108000C
:020000040001F9
:0A000E00EC3FFF3F9F3FFF3FFF3F25
:00000001FF
